:0C09EF00EF4E6007EF1F70F81E80F5222D
:10099600AD07AC06ED4C600E7F707E001209EFEDE0
:0709A6001D70F11C80EE2220
:050A2A00D290D29122E0
:1009AD007F017E001209EFD2907F017E001209EFC8
:0309BD00C29022C3
:080A1200C2911209ADD291223C
:080A1A00D2911209ADD2902225
:10000300C290D2917F017E001209EFD2907F017ED0
:10001300001209EFC2917F017E001209EFC2902204
:10093F00C2907F017E001209EFC2917F017E0012EB
:0E094F0009EFD2907F017E001209EFD29122B3
:08081200151DA81DA607151D08
:10081A00A81DE4F6A81DE6C39408748094805019B4
:10082A0008E63392911209ADA81D08C000E6FF251B
:0C083A00E0D000F6A81D0680DB1209AD1E
:05084600051D051D2247
:0A05BA00151DA81DA607151D151D2F
:1005C400A81D08E4F6D291A81DF6A81DE6C3940858
:1005D40074809480502C7F017E001209EFD2907FAA
:1005E400017E001209EFA81D08C000E6FF25E0D037
:1005F40000F6A291E433A81D0846F6C290A81D0691
:1006040080C8A81D0808E664017005120A12800358
:08061400120A1AA81D08E6FFF6
:07061C00051D051D051D224F
:10075300151DA81DA6077F017E00120996A81DE698
:1007630054F0F5A0C2A2D2A37F0A7E001209EFC201
:10077300A37F017E00120996A81DE6C454F0F5A0DC
:10078300C2A2D2A37F0A7E001209EFC2A3051D22D3
:0F09D3007F281207537F0C1207537F060207532A
:10079300151DA81DA6077F017E00120996A81DE658
:1007A30054F0F5A0D2A2D2A37F0A7E001209EFC2B1
:1007B300A37F017E00120996A81DE6C454F0F5A09C
:1007C300D2A2D2A37F0A7E001209EFC2A3051D2283
:1007D300151D151D151DA81DA60308A60208A601B3
:1007E300A81D860308E6FA08E6F91203826019A831
:1007F3001D8603080806E618860270010614F9121E
:0F0803000382FF12079380D8051D051D051D22D6
:1008FC002530366C75002530366C750D0A002530A8
:10090C003364004C75783A004C454420504F5745A1
:03091C00523A004C
:0C09E200042A0000000001220001230094
:0300230002054B88
:10054B00C0E0C0F0C083C082C0D075D000C000C076
:10055B0001C002C003C004C005C006C00730990427
:10056B00C299803075A800AF99EF646570051206CB
:10057B00F1801CAF99D374619F7480F8985010AFC1
:10058B0099EF9464748094805005AF99120623C23E
:10059B009875A890D007D006D005D004D003D00210
:0F05AB00D001D000D0D0D082D083D0F0D0E032B9
:1006F1007C007D147F131204CDE48F2D8E2CF52BFD
:10070100F52A750BFF750C08750DFC8F118E108580
:100711002B0F852A0EFB7A0079241200827F871223
:1007210007537B007A0079241207D3750BFF750CF0
:1007310009750D02852D11852C10852B0F852A0E2B
:100741007B007A0079241200827B007A00792402EE
:0207510008801E
:10062300EFFD7C0064617004F5238025ED64624C6A
:1006330070057523FF801AED64634C7009E523F49C
:1006430060450523800BEF64647006E5236038156D
:100653002312091F7FFE1208D7AF231208D71209EE
:100663005D750BFF750C09750D0A750E0085230F5B
:100673007B007A0079241200827FCB1207537B0020
:080683007A0079241207D3224A
:10084B00E4F51C7FFD120A071209D3120A2A120AB9
:10085B002F1209FB7F801207537BFF7A09790F1246
:10086B0007D37FC01207537BFF7A0979141207D382
:05087B0075A89080FE4D
:0B0A07007589228F8D759850D28E22C9
:080A22008F993099FDC2992261
:100880008B088A09890AAB08AA09A90A120382609F
:100890001E7F017E00120996AB08050AE50AAA0927
:1008A0007002050914F9120382FF120A2280D7226E
:0C09FB007F647E001209967F0002097BD9
:10097B00151DA81DA6071200037F46120812A81DFD
:0B098B00E6FF12081212093F051D22B2
:06068B00E51D24FAF51D37
:10069100F81203B300000000E51D2404F8E4F6E5B8
:1006A1001D2405F8E4F61200037F471208127F01AA
:1006B1001205BAE51D2405F8A6077F001205BAE563
:1006C1001D2404F8A60712093FE51D2405F8E6FEDE
:1006D100E51D2404F8E6FDEDFFEE3395E0FDFCA8F1
:0906E1001D1203A7A81D12039BC2
:0706EA00E51D2406F51D22A9
:1004CD00151D151DA81DA60408A605151DA81DA6FC
:0704DD0007E51D24FCF51DDD
:1004E400F81203B3000000007F0112097BE51D240C
:1004F40004F8E6FF12097BA81DC00012039BC00488
:10050400C005C006C00712068BAB07AA06E4F9F8BB
:10051400D007D006D005D004EF2BFFEE3AFEE93D1C
:10052400FDE83CFCD0001203A7E51D2405F8E6FE17
:1005340008E6FF1209967F0012097BA81D12039B8F
:07054400E51D2407F51D224F
:050A2F00D2B2D2B32297
:1009C0007F017E001209EFD2B27F017E001209EF93
:0309D000C2B2228E
:10091F00C2B2D2B37F017E001209EFD2B27F017E45
:10092F00001209EFC2B37F017E001209EFC2B2229B
:10095D00C2B27F017E001209EFC2B37F017E001289
:0E096D0009EFD2B27F017E001209EFD2B32251
:0208D7008F0888
:1008D900E4F509C3E5099408748094805012E50889
:1008E9003392B31209C0E50825E0F508050980E34C
:0308F9000209C031
:03000000020441B6
:0C044100787FE4F6D8FD75812D02048858
:10038200BB010689828A83E0225002E722BBFE0279
:09039200E32289828A83E49322AC
:0C039B00E6FC08E6FD08E6FE08E6FF228E
:0C03A700ECF608EDF608EEF608EFF62282
:1003B300D083D082E493F608740193F60874029311
:0903C300F608740393F674047348
:10002600E517240BF8E60517227808300702780B47
:10003600E475F00112040B0203822000EB7F2ED23E
:10004600008018EF540F2490D43440D4FF30040BB2
:10005600EF24BFB41A0050032461FFE518600215AF
:1000660018051BE51B7002051A30070D7808E475A4
:10007600F00112040BEF0203F90208B07403D20771
:100086008003E4C207F5178B088A09890AE4F51884
:10009600F51AF51BE51860077F2012006180F575DB
:1000A60019FFC201C200C202C203C205C206C208CB
:1000B60012002FFF700D3007057F00120072AF1B74
:1000C600AE1A22B4255FC2D5C20412002FFF24D077
:1000D600B40A00501A75F00A781830D50508B6FF2C
:1000E6000106C6A426F620D5047002D20380D924C0
:1000F600CFB41A00EF5004C2E5D204020272D20154
:1001060080C6D20080C0D20280BCD2D580BAD205C9
:1001160080B47F201200612002077401B5180040E8
:10012600F1120026FF12006102009AD208D2068060
:1001360095120026FB120026FA120026F94A4B7089
:100146000679437A037BFF20022EE518602A7E009B
:100156008E827583001203CC60060EEE651970F070
:10016600C2D5EBC0E0EAC0E0E9C0E0EE1202B9D0C9
:10017600E0F9D0E0FAD0E0FB120382FF60AAEBC000
:10018600E0EAC0E0E9C0E0120061D0E02401F9D065
:10019600E03400FAD0E0FBE5190460DCD519D9801B
:1001A600877BFF7A0279B5D202809C79108002792A
:1001B60008C206C2088008D2D5790A8004790AC224
:1001C600D5E519047002F519E4FAFDFEFF120026C2
:1001D600FC7B08200113120026FD7B1030000A125A
:1001E6000026FE120026FF7B20EC3382D592D550E6
:1001F60013C3E43000069FFFE49EFEE42001039D46
:10020600FDE49CFCE4CBF8C201EC700CCFCECDCC67
:10021600E824F8F870F38017C3EF33FFEE33FEEDF2
:1002260033FDEC33FCEB33FB994002FB0FD8E9EBD3
:10023600300105F8D0E0C448B201C0E00AEC4D4EEA
:100246004F78207B0070C2EAB5190040BCC0E012AE
:1002560002BBD0F0D0E0200104C4C0E0C4B201C0AB
:10026600F012004AD0F0D5F0EB02009A12041B01FE
:10027600375301B15801084C01044201B54F01BD85
:0F0286004401BD49011D4301C35501A74601A70E
:100295004501A747036350010C2D01102E01332B97
:1002A500011423013120034C2A00CC480000012B06
:1002B5003F3F3F00790AA2D5200314300509B91044
:1002C500020404B9080104A2D52006025001042045
:1002D50002689202B518005034C0E07F203003193F
:1002E5007F30A20272067205500F120312C202C2BB
:1002F50006C205C2087F30800F300503E9C0E01251
:100305000061300503D0E0F9D0E0B518CC30051711
:100315007F30B9100C1200617F583004077F788058
:1003250003B908031200613002057F2D0200617FC9
:10033500202008F87F2B2006F322920280CF286E1A
:10034500756C6C2900D2011200263001F8C20178C3
:100355001830D50108F60200CC2D5043495812003B
:10036500262403B405004001E490035E9312005275
:0D037500743A120052D2037518040201B14F
:10044D0002084BE493A3F8E493A34003F68001F272
:10045D0008DFF48029E493A3F85407240CC8C333B0
:10046D00C4540F4420C8834004F456800146F6DF7F
:10047D00E4800B01020408102040809009E2E47E24
:10048D00019360BCA3FF543F30E509541FFEE49374
:10049D00A360010ECF54C025E060A840B8E493A33B
:1004AD00FAE493A3F8E493A3C8C582C8CAC583CA66
:1004BD00F0A3C8C582C8CAC583CADFE9DEE780BE1E
:0109EE000008
:1003CC00BB010CE58229F582E5833AF583E02250E6
:1003DC0006E92582F8E622BBFE06E92582F8E22230
:0D03EC00E58229F582E5833AF583E493224A
:1003F900BB010689828A83F0225002F722BBFE01E3
:02040900F322DC
:10040B00FAE6FB0808E6F925F0F618E6CA3AF622F2
:10041B00D083D082F8E4937012740193700DA3A370
:10042B0093F8740193F5828883E473740293686084
:06043B00EFA3A3A380DF84
:1008B000EFB40A07740D1208BB740A309811A89996
:1008C000B8130CC2983098FDA899C298B811F630A8
:0708D00099FDC299F5992280
:00000001FF
